:10000000D0240020452200003D2300003D230000B5
:1000100000000000000000000000000000000000E0
:100020000000000000000000000000003D23000070
:1000300000000000000000003D2300003D23000000
:100040003D2300003D2300003D2300003D23000030
:100050003D2300003D2300003D2300003D23000020
:100060003D230000751500008D150000A51500004A
:10007000BD150000D5150000ED1500003D23000062
:100080003D2300003D2300003D2300003D230000F0
:100090003D23000000000000000000003D230000A0
:1000A0003D2300003D2300003D2300003D230000D0
:1000B0000000000010B5064C2378002B07D1054B3B
:1000C000002B02D0044800E000BF0123237010BDC4
:1000D0003C04002000000000E0260000084B10B5A2
:1000E000002B03D00749084800E000BF0748036819
:1000F000002B00D110BD064B002BFBD09847F9E731
:100100000000000040040020E0260000E02600007F
:100110000000000080B582B000AF0200FB1D1A7025
:10012000064BFA1D127811001F220A40012191404E
:100130000A001A60C046BD4602B080BD00E100E082
:1001400080B584B000AF78607B681B68FB60FB689B
:10015000DB695A1E9341DBB21800BD4604B080BD76
:1001600080B582B000AF78607B681800044B984778
:10017000031E00D0F8E7C046BD4602B080BDC046B1
:100180004101000080B582B000AF78607B688022BA
:10019000D2051A607B6800225A607B68FF221A81B0
:1001A0007B6800229A727B680022DA727B68962252
:1001B00092011A627B682422012199547B682522CE
:1001C000012199547B682622002199547B682722BB
:1001D000002199547B6800229A627B68882252032E
:1001E000DA607B682C22002199547B682D22002143
:1001F00099547B6800221A637B6800225A637B68EB
:1002000000229A637B680022DA637B6800225A61CD
:100210007B6800221A827B680022DA767B680022E3
:100220001A767B6800221A777B6800225A767B68F0
:1002300013229A767B6800225A77C046BD4602B0E8
:1002400080BD000080B584B000AF78607B681B681B
:10025000FB607B681B681800094B98470300180077
:10026000084B98477B681800074B9847FB681B684A
:1002700002221A43FB681A60C046BD4604B080BD26
:1002800031150000150100006101000080B584B047
:1002900000AFF860B960FB1D1A70FB68743318007A
:1002A0001A4B9847FB689421BA685A50FB68802122
:1002B000C42292035A50FB68A42215499950FB6846
:1002C000A82214499950FB68AC21012252425A508D
:1002D000FB68B021012252425A50FB68403318009B
:1002E000FB6874330C491A000C4B984703005A1EE4
:1002F0009341DBB2002B00D0EFE7FB6840331800DE
:10030000074B9847C046BD4604B080BD850100003C
:10031000030006000300070000080042CD0D0000A6
:100320004502000080B584B000AF78607B68403340
:100330000E22BA1811001800084B984703005A1EE5
:100340009341DBB2002B00D0F0E70E23FB181B8893
:10035000DBB21800BD4604B080BDC04641100000AD
:1003600090B585B000AF78600F23FB1800221A709B
:100370000F23FB181B783F2B0DD80F23FB181B787E
:100380007A680021D1540F23FB181A780F23FB1829
:1003900001321A70ECE70E23FB1800221A700E23AC
:1003A000FB181B78082B12DC0E23FB181C787B68CB
:1003B0001800094B984703001A007B681A550E2352
:1003C000FB181A780E23FB1801321A70E7E77B68D6
:1003D0001800BD4605B090BD2503000080B5AEB045
:1003E00000AF0B4B98470B4B9847E12359023B005A
:1003F00000221800084B98473B001800074B98470D
:100400000300B422BA1813603220054B9847F3E773
:1004100011220000391600008D0200006103000067
:100420009116000080B582B000AF78607B68002232
:100430001A70C046BD4602B080BDF0B58DB000AFA9
:10044000B860F9603A607B60002300243B627C6204
:1004500000230024BB61FC613F23FB6253E0FB6A85
:10046000203B002B04DB01229A4013007B610BE050
:10047000FB6A2022D31A0122DA4013000021FA6A13
:1004800091400A0013437B610122FB6A9A401300EA
:100490003B61BB69FC69DB186441BB61FC61BB6803
:1004A0003A691A401500FB687A691A4016002B0059
:1004B000334307D0BB6901221343BB61FB690022B0
:1004C0001343FB617A68FB699A4219D87A68FB6921
:1004D0009A4203D13A68BB699A4211D8B969FA695C
:1004E0003B687C68C91AA2410B001400BB61FC6127
:1004F0003A6A3B6913433B627A6A7B6913437B62C6
:10050000FB6A013BFB62FB6A002BA8DA3B6A7C6A50
:1005100018002100BD460DB0F0BD80B586B000AF1B
:10052000F860B9607A601623FB1800221A80BB6855
:100530003B61BB685A08FB689A4201D2402326E01F
:10054000BB685B083B610AE03A69FB68D31A3B6110
:100550001623FB181A881623FB1801321A803A69F1
:10056000FB689A42F0D21623FB181622BA1812889A
:10057000013A1A801623FB181B88FF2B01D9402350
:1005800005E07B681622BA1812881A80002318002A
:10059000BD4606B080BD0000F0B5A1B000AFF86464
:1005A000B9647A644322BA181370002300243B67AD
:1005B0007C6700230024BB66FC6600230024BB6725
:1005C000FC6700237B66582340229446BC44634466
:1005D0001A78FB6C5A43BB6C9A4201D94023B3E0B2
:1005E0004323FB181B78002B3DD15823402294460F
:1005F000BC4463441B78DBB23B6100237B61FB6C32
:10060000BB600023FB60524CBA68FB6838697969AB
:10061000A04703000C001B00FB650023BB65BB6CFF
:100620003B6000237B60B86DF96D3A687B68494C8C
:10063000A04703000C003B677C67002101223B6F51
:100640007C6FC91AA2410B001400BB66FC66BB6E2E
:100650001B0CFA6E16041E43BB6E1D043300BB67F1
:100660000023FB676AE04323FB181B78012B65D14D
:10067000FB6C3B6300237B63582340229446BC44BD
:1006800063441B78DBB2BB620023FB62304CBA6A66
:10069000FB6A386B796BA04703000C00BB65FC65F7
:1006A000BB6C3B6200237B62BB6DFC6D1A002300B8
:1006B000386A796A274CA04703000C007B667A6E83
:1006C00080239B019A4201D940233DE0BB6CBB6172
:1006D0000023FB61B969FA690B005B0F1000C000D1
:1006E000F863F86B1843F8630B00DB00BB63BB6D6A
:1006F000FC6D1A002300B86BF96B164CA047030081
:100700000C00BB65FC65BB6DFC6DD9B27B6EDBB2CA
:10071000DB00DAB2172340208446BC4463448A1AC3
:100720001A70172340229446BC4463441B785B0331
:100730001A007B6E1343BB670023FB67BB6FFC6F24
:100740009AB27B6C1A8000231800BD4621B0F0BD20
:100750005D2400003B04000080B584B000AF0200BF
:10076000FB1D1A70BB1D0A1C1A701A4B1B78012244
:100770005340DBB2002B03D1BB1D1B78002B1BD0D9
:100780000C23FB181800144B98470C23FB18FA1D78
:1007900012781A700C23FB18190013200F4B98477E
:1007A00013200F4B98470B4BFA1D12785A70094BC8
:1007B00001221A70002308E0064B5B78FA1D1278BC
:1007C0009A4201D1002300E01D231800BD4604B069
:1007D00080BDC0465804002025040000D11E000042
:1007E000151F000080B582B000AF78600A00FB1CC6
:1007F0001A707B684D4A93423FD04C4A934206D8C8
:100800004B4A93420FD04B4A934221D089E04A4A47
:10081000934200D15BE0494A934200D16CE0484AE0
:1008200093423FD07DE0FB1C1B78012B0AD002DCF9
:10083000002B05D075E0022B06D0032B06D070E00C
:10084000404B6FE0404B6DE0404B6BE0404B69E04C
:10085000FB1C1B78012B0AD002DC002B05D060E0CA
:10086000022B06D0032B06D05BE003235AE0394B62
:1008700058E0394B56E0394B54E0FB1C1B78012BF8
:100880000AD002DC002B05D04BE0022B06D0032B54
:1008900006D046E0324B45E0324B43E0324B41E07C
:1008A000324B3FE0FB1C1B78012B0AD002DC002BF3
:1008B00005D036E0022B06D0032B06D031E02C4BBE
:1008C00030E02C4B2EE02C4B2CE02C4B2AE0FB1C78
:1008D0001B78012B0AD002DC002B05D021E0022B73
:1008E00006D0032B06D01CE0254B1BE0254B19E05E
:1008F000254B17E0254B15E0FB1C1B78012B0AD07C
:1009000002DC002B05D00CE0022B06D0032B06D016
:1009100007E01F4B06E01F4B04E01F4B02E01F4B9C
:1009200000E000231800BD4602B080BD0010004268
:1009300000080042000C004200180042001C004267
:100940000014004203000400030005000300060039
:10095000030007000300010003001E0003001F0046
:10096000030008000300090003000A0003000B0055
:100970000300100003001100030012000300130025
:1009800003000C0003000D0003000E0003000F0025
:1009900003001600030017000300180003001900ED
:1009A00090B58BB000AF78600C23FB180F4A13CAC8
:1009B00013C313CA13C300237B620EE00C23FB187E
:1009C0007A6A9200D3581A007B689A4202D17B6AF5
:1009D000DBB206E07B6A01337B627B6A052BEDD9D3
:1009E00000231800BD460BB090BDC0465026000045
:1009F00080B582B000AF78607B6800221A70C04674
:100A0000BD4602B080BD000080B582B000AF0200DC
:100A10003960FB1D1A70FB1D1B78012B0AD0022BBD
:100A20000FD0002B14D10E4B0D4A91693A680A433E
:100A30009A610FE00A4B0A4AD1693A680A43DA61BF
:100A400008E0074B064A116A3A680A431A6201E055
:100A5000172300E000231800BD4602B080BDC04649
:100A60000004004080B582B000AF78607B688022CF
:100A70001A707B6800225A707B6801229A707B682A
:100A80000022DA70C046BD4602B080BD80B500AF1E
:100A9000054B9B78DBB21A00022313405A1E934188
:100AA000DBB21800BD4680BD0020004180B584B097
:100AB00000AF78607B681B68FB60FB68DB695A1ECF
:100AC0009341DBB21800BD4604B080BD80B582B052
:100AD00000AF7860C0467B681800044B9847031E3F
:100AE000F9D1C046BD4602B080BDC046AD0A000087
:100AF000B0B58CB002AF786039607B681B68BB61B1
:100B00007B681B681800AB4B984703007B617B69CF
:100B100014333B6100237B6200233B620A23FB18F2
:100B200000221A801F23FB1800221A701E23FB18B4
:100B300010221A703B681B8A8022D20193421CD07B
:100B40008022D201934206DC002B0DD0802292013C
:100B5000934224D035E0C022D201934228D0802293
:100B60001202934212D02CE01F23FB1800221A70AD
:100B70001E23FB1810221A7023E01F23FB180022EB
:100B80001A701E23FB1808221A701AE01F23FB1884
:100B900000221A701E23FB1803221A7011E01F2373
:100BA000FB1801221A701E23FB1810221A7008E08D
:100BB0001F23FB1801221A701E23FB1808221A702B
:100BC000C0463B681A683B68DB681A433B685B6950
:100BD00013433A68128A13433A68127E120213438F
:100BE0003A682621525C520713437B621D23FB188F
:100BF00000221A703B685B68FB60FB68002B1ED00C
:100C00008022520593424FD13B6827229B5C0122F0
:100C10005340DBB2002B46D03B681D6A3B69DBB218
:100C20001800654B984701001D23FC180A23FB1888
:100C30001A002800614B98470300237033E03B689B
:100C400027229B5C002B14D03B68186A3B68996A8A
:100C50001D23FC181F23FB181D780A23FA181E23D6
:100C6000FB181B7800932B00554DA84703002370F9
:100C70001AE03B681D6A3B69DBB218004E4B98478F
:100C80001D23FC181F23FB1819780A23FA181E23AA
:100C9000FB181B7800930B0001002800484DA84763
:100CA0000300237000E0C0461D23FB181B78002BB7
:100CB00003D01D23FB181B7877E03B685B7E002B7D
:100CC00003D03B689A7EBB699A737B6818003D4BE2
:100CD00098470A23FB181A88BB699A817A6AFB68CD
:100CE00013437B623B6827229B5C01225340DBB2AB
:100CF000002B03D07B6A042213437B623B685B7E3C
:100D00009A023B681B7F5B021A433B685B7F1B02B6
:100D10001A433B6824215B5C5B041A433B68252132
:100D20005B5C1B0413433B623B689B7A1A003B6A83
:100D300013433B623B68DB7A1A003B6A13433B6216
:100D40003B681B89FF2B0BD07B6A80225204134324
:100D50007B623B681B891A003B6A13433B6208E0D5
:100D60003B68DB7E002B04D07B6A8022D2041343D5
:100D70007B623B682C229B5C002B03D1124B984773
:100D8000031E03D07B6A802213437B627B681800BA
:100D90000C4B9847BB693A6A5A607B681800094B4C
:100DA0009847BB697A6A1A6000231800BD460AB0EA
:100DB000B0BDC046A1090000F51F00001B050000E2
:100DC00099050000CD0A00008D0A000090B593B08F
:100DD00000AFF860B9607A603B23FB1800221A70FC
:100DE000FB68BA681A60FB681B687B63FB681B685A
:100DF0001800864B984703003B633B6B0233FB6252
:100E00003B6B1433BB627B6B1B680122134001D028
:100E10000523F6E07B6B1B680222134001D01C23E4
:100E2000EFE00122FB6A9A40130019000220784B80
:100E300098472423FB181800764B98477B682D228F
:100E40009A5C2423FB181A70BB6ADBB22422BA18FE
:100E500011001800704B9847BB6ADBB218006F4B4B
:100E600098477B682D229B5C002118006C4B9847AB
:100E70007B68DA7AFB685A717B6824229A5CFB688B
:100E80009A717B6825229A5CFB68DA717B68DA7E4E
:100E9000FB681A727B681A7FFB685A723B23FC1846
:100EA0007A68FB68110018005E4B984703002370B6
:100EB0003B23FB181B78002B03D03B23FB181B782C
:100EC0009FE02023FB181800574B98472023FB185E
:100ED00000225A702023FB1800229A707B681A6B3C
:100EE0001023FB181A607B685A6B1023FB185A609A
:100EF0007B689A6B1023FB189A607B68DA6B10236F
:100F0000FB18DA604723FB1800221A702CE04723F5
:100F1000FB181A781023FB189200D3583B643B6CE3
:100F2000002B09D14723FB181A78BB681100180061
:100F30003E4B984703003B643B6C01330DD03B6C48
:100F4000DAB22023FB181A703B6C1B0CDBB2202298
:100F5000BA1811001800364B98474723FB181A7827
:100F60004723FB1801321A704723FB181B78032B09
:100F7000CDD90023FB630AE0FA68FB6B02339B00C8
:100F8000D318043300221A60FB6B0133FB63FB6B45
:100F9000052BF1D9FB6800229A62FB6800225A6295
:100FA000FB680022DA85FB6800229A85FB68302204
:100FB00000219954FB68312200219954FB683222A8
:100FC00000219954FB68332200219954FB681B6867
:100FD0002722BC1818000D4B984703002370154AB0
:100FE0002723FB181B7811001800134B9847272361
:100FF000FB181A78114B9200F968D1503B23FB186B
:101000001B781800BD4613B090BDC046A109000072
:10101000090A0000F1090000D11E0000151F0000A0
:1010200059070000F10A0000650A0000E50700000A
:10103000BD21000071110000C514000094040020BF
:1010400080B584B000AF786039607B681B68FB6056
:101050007B689B7901225340DBB2002B01D01C231B
:101060005EE07B689B8D9BB2002B01D0052357E08F
:10107000FB681B7EDBB21A000423134001D1052359
:101080004EE07B681800284B9847FB685B8B9BB24F
:10109000DAB20B23FB183F210A401A700B23FB180E
:1010A0001B78002B36D00B23FB181B780222134031
:1010B00004D0FB6802225A831A2331E00B23FB1869
:1010C0001B780422134004D0FB6804225A831E2399
:1010D00026E00B23FB181B780122134004D0FB6889
:1010E00001225A8313231BE00B23FB181B781022C9
:1010F000134004D0FB6810225A83422310E00B23D4
:10110000FB181B782022134004D0FB6820225A834E
:10111000412305E0FB681B8D9AB23B681A800023CF
:101120001800BD4604B080BDCD0A000080B584B073
:1011300000AF78607B681B68FB60FB68DB695A1E48
:101140009341DBB21800BD4604B080BD80B582B0CB
:1011500000AF7860C0467B681800044B9847031EB8
:10116000F9D1C046BD4602B080BDC0462D11000079
:1011700080B588B000AF0200FB1D1A70FB1D1A7805
:10118000A34B9200D358BB61BB691B687B61BB69F1
:101190001800A04B98477B691B7EDAB21223FB181C
:1011A0001A807B699B7DDBB29AB21223FB18122155
:1011B000791809880A401A80BB6930229B5CBA6999
:1011C0003121525C1340DAB21023FB181A8012232B
:1011D000FB181B880122134044D0BB69DB8D9BB2F6
:1011E000002B3CD0BB699B6A1B78DAB21C23FB182E
:1011F0001A80BB699B6A5A1CBB699A62BB695B799E
:10120000012B13D1BB699B6A1B78DBB21B021AB29C
:101210001C23FB1800215B5E13431AB21C23FB182E
:101220001A80BB699B6A5A1CBB699A621C23FB1813
:101230001B88DB05DB0D9AB27B691A85BB69DB8DE8
:101240009BB2013B9BB2BA69191CD185002B09D115
:101250007B6901221A757B6902229A7502E07B691B
:1012600001221A751223FB181B880222134011D089
:101270007B6902221A75BB6933220021995410231D
:10128000FB181B880122134004D0BB69DB68BA69D4
:10129000100098471223FB181B880422134000D12A
:1012A000BDE0BB699B8D9BB2002B00D1B4E07B6994
:1012B0005B8B9BB2DAB21F23FB183F210A401A70E6
:1012C0001F23FB181B780822134007D01F23FB188D
:1012D0001F22BA18127808218A431A701F23FB189C
:1012E0001B78002B50D01F23FB181B7802221340C1
:1012F00007D0BB6932221A2199547B6902225A8392
:1013000036E01F23FB181B780422134007D0BB696B
:1013100032221E2199547B6904225A8328E01F231C
:10132000FB181B780122134007D0BB69322213211E
:1013300099547B6901225A831AE01F23FB181B78FA
:101340001022134007D0BB693222422199547B6995
:1013500010225A830CE01F23FB181B782022134015
:1013600006D0BB693222412199547B6920225A83DD
:101370001023FB181B880422134050D0BB695B6903
:10138000BA69100098474AE07B691B8D9AB20E2318
:10139000FB18D205D20D1A80BB695B6A0E22BA18FF
:1013A0001288D2B21A70BB695B6A5A1CBB695A6256
:1013B000BB695B79012B0DD1BB695B6A0E22BA1840
:1013C0001288120A92B2D2B21A70BB695B6A5A1CB6
:1013D000BB695A62BB699B8D9BB2013B9BB2BA69E8
:1013E000191C9185002B1AD17B6904221A75BB69DF
:1013F0003222002199541023FB181B88022213402B
:101400000DD0BB691B69BA691000984707E0C04658
:10141000940400204D1100007B6904221A751223E8
:10142000FB181B881022134010D07B6910221A75FC
:101430007B6910221A761023FB181B881022134098
:1014400004D0BB69DB69BA69100098471223FB1806
:101450001B882022134010D07B6920221A757B69DB
:1014600020221A761023FB181B880822134004D070
:10147000BB699B69BA69100098471223FB181B8847
:101480000822134010D07B6908221A757B69082254
:101490001A761023FB181B882022134004D0BB6946
:1014A0001B6ABA6910009847C046BD4608B080BDA7
:1014B00080B582B000AF0200FB1D1A70C046BD4669
:1014C00002B080BD80B584B000AF02003960FB1D62
:1014D0001A70134B1B7801225340DBB2002B15D03E
:1014E0000023FB600CE00F4BFA6892000E49D150CC
:1014F0000E4BFA6892000021D150FB680133FB606B
:10150000FB68052BEFD9064B01221A70FB1D1A78D8
:10151000044B92003968D150C046BD4604B080BD2E
:101520005A0400205C040020B11400009404002040
:1015300090B585B000AF78600823FB180B4A11689E
:10154000196092889A800F23FC187B681800084B5A
:101550009847030023700F23FB181B780822BA1842
:10156000D35C5BB21800BD4605B090BD6826000094
:10157000A109000080B500AF034B1B68002098470D
:10158000C046BD4680BDC0465C04002080B500AFAB
:10159000034B5B6801209847C046BD4680BDC046EE
:1015A0005C04002080B500AF034B9B680220984785
:1015B000C046BD4680BDC0465C04002080B500AF7B
:1015C000034BDB6803209847C046BD4680BDC0463C
:1015D0005C04002080B500AF034B1B6904209847D2
:1015E000C046BD4680BDC0465C04002080B500AF4B
:1015F000034B5B6905209847C046BD4680BDC04689
:101600005C04002080B582B000AF78607B68002B5E
:101610000CD0084B7A685A60064B00229A60C0468C
:10162000044B1A6880235B021340F9D0C046BD46C4
:1016300002B080BD10E000E080B500AF00200F4B8D
:10164000984702000E4B1A600D4B18680D4BFA229A
:101650009100984703001A00094B1A60084B18685C
:10166000084BFA229100984703001A00064B1A60B3
:10167000064B05221A60C046BD4680BDF91D00001C
:1016800000000020452300000400002010E000E0DE
:1016900080B582B000AF786004E0074B1B6818008B
:1016A000064B98477B685A1E7A60002BF5D1C046DE
:1016B000BD4602B080BDC0460000002005160000F7
:1016C00080B500AFC046BD4680BD000080B582B089
:1016D00000AF104B1B68002B12D1EFF310837B601F
:1016E0007B68002B09D172B6BFF35F8F0A4B0022D3
:1016F0001A700A4B01221A7002E0084B00221A707D
:10170000044B1B685A1C034B1A60C046BD4602B00E
:1017100080BDC0467404002008000020780400202A
:1017200080B500AF0B4B1B685A1E0A4B1A60094B61
:101730001B68002B0AD1084B1B78DBB2002B05D0AD
:10174000064B01221A70BFF35F8F62B6C046BD46DA
:1017500080BDC046740400207804002008000020EA
:1017600080B582B000AF78607B6801225A607B68E8
:1017700000225A707B6806221A707B6800221A7257
:101780007B6800225A72C046BD4602B080BD80B55B
:1017900082B000AF78607B6803221A707B680022F9
:1017A0005A707B6801229A70C046BD4602B080BD67
:1017B00080B582B000AF0200FB1D1A70034AFB1D0A
:1017C0001B781372C046BD4602B080BD00040040C5
:1017D00080B582B000AF0200FB1D1A70BB1D0A1C51
:1017E0001A70FB1D1B78012B08D0022B0BD0002B8D
:1017F0000ED10B4ABB1D1B7853720BE0084ABB1D70
:101800001B78937206E0064ABB1D1B78D37201E079
:10181000172300E000231800BD4602B080BDC0467B
:101820000004004080B582B000AF0200FB1D1A70BA
:10183000084AFB1D1B780F210B40D9B253680F20BB
:10184000014049001E2083430B435360C046BD4600
:1018500002B080BD0040004180B500AFC046044BDF
:10186000DB6810221340FAD0C046BD4680BDC0469A
:101870000008004080B500AF0C4B02229A840C4B4C
:1018800098470A4A0B4B9B68D362084A094B5B682E
:101890009362064B00229A84054B9847034A054BF6
:1018A0001B689BB29384C046BD4680BD00080040C3
:1018B000591800007C04002080B582B000AF0200FF
:1018C000FB1D1A70FB1D1B78082B40D89A00224B79
:1018D000D3181B689F46214B1B6939E0204B1B6ABC
:1018E0009B059B0FDBB21A001E4BD34030E08023D8
:1018F0001B022DE080231B022AE0184B5B6927E0C6
:10190000164B1B680222134001D1002320E0164B26
:101910009847124B1B680422134009D00020134B38
:10192000984702000D4B9B681B041B0C53430FE0B0
:101930000F4B0DE00A4A5023D35CDBB21A0004239C
:10194000134001D1002303E0044BDB6800E00023D7
:101950001800BD4602B080BD702600007C04002047
:101960000008004000127A0059180000F51F00001E
:10197000006CDC0280B584B000AF78601A4B1B6A43
:10198000FB607B681B781A1C03231340DAB20D231B
:10199000FB1803210A4010001A7803218A43111C06
:1019A000021C0A431A707B689A780C23FB18D0013A
:1019B0001A787F210A40111C021C0A431A707B68A6
:1019C0005A780C23FB1801210A4090011A78402113
:1019D0008A43111C021C0A431A70034BFA681A62EC
:1019E000C046BD4604B080BD0008004080B582B04E
:1019F00000AF0200FB1D1A70FB1D1B78082B3BD8A3
:101A00009A00214BD3181B689F46204B1F4A126A2D
:101A100002210A431A62002331E01C4B1B4A9269DF
:101A200002210A439A6129E0184A184B1B8A9BB28B
:101A300002210B439BB2138220E0144A134B9B8A72
:101A40009BB202210B439BB2938217E0104B1B68A1
:101A500002221A430E4B1A600E4B98470EE00B4AB7
:101A60000A494423CB5CDBB202210B43D9B24423A5
:101A7000D15403E0002302E0172300E00023180004
:101A8000BD4602B080BDC04694260000000800405C
:101A90007C0400207518000080B582B000AF3B00C8
:101AA00001221A7000237B6009E07B68DBB23A00F8
:101AB00011001800054B98477B6801337B607B68F9
:101AC000242BF2D9C046BD4602B080BDD11E000015
:101AD00080B5A0B000AF274BC222D2009A60002090
:101AE000254B9847254B98477C23FB181800244B1F
:101AF00098477C23FB1800221A707C23FB180122D4
:101B00009A707C23FB1800225A707C23FB18180063
:101B10001C4B984706201C4B98471C4B98470020AD
:101B20001B4B9847002100201A4B984700210120A9
:101B3000184B984700210220164B98473B1D180070
:101B4000154B98473B1D06221A703B1D01225A6017
:101B50003B1D00221A723B1D00225A723B1D1900C8
:101B600000200E4B984700200D4B9847C046BD46BD
:101B700020B080BD0008004025180000991A000020
:101B80008F17000075190000ED190000491C0000B6
:101B9000B1170000D117000061170000791C000088
:101BA0009D1D000080B582B000AF02003960FB1DB2
:101BB0001A70FB1D1B78012B0AD0022B0FD0002BB3
:101BC00014D10E4B0D4A91693A680A439A610FE0AD
:101BD0000A4B0A4AD1693A680A43DA6108E0074BBE
:101BE000064A116A3A680A431A6201E0172300E0C4
:101BF00000231800BD4602B080BDC046000400406E
:101C000080B500AF024B9847C046BD4680BDC04678
:101C1000CD16000080B500AF024B9847C046BD46C8
:101C200080BDC0462117000080B500AF054B5B7832
:101C3000DBB25BB2002B01DA012300E000231800C5
:101C4000BD4680BD000C004080B500AF08210020DB
:101C5000074B9847074B01221A70C046054B1B786B
:101C6000DBB21A0001231340F8D1C046BD4680BD47
:101C7000A51B0000000C004080B586B000AF02003C
:101C80003960FB1D1A70FB1D1B787B61FB1D1B78E7
:101C90003B613B681B781B021A007B6913437B6125
:101CA0003B685B78002B04D07B698022D20213430F
:101CB0007B613B685B7A002B04D07B698022120336
:101CC00013437B613B685B68012B2CD93B685A68E6
:101CD0003B685B68013B13401AD10023FB60022381
:101CE000BB6005E0FB680133FB60BB685B00BB6069
:101CF0003B685A68BB689A42F4D8FB681B023A6991
:101D000013433B617B698022520313437B610AE0EA
:101D10003B685B681B023A6913433B617B69802225
:101D2000920213437B613B681B7A002B04D07B69D2
:101D30008022920313437B61C046134B9847031ED6
:101D4000FBD1124B9847124AFB1D1B781370C046FB
:101D50000D4B9847031EFBD10E4B3A699A60C04663
:101D6000094B9847031EFBD10A4B0A4A516880224F
:101D7000520211407A690A435A60074B9847C0469D
:101D8000BD4606B080BDC046291C0000011C0000F5
:101D9000080C0040000C0040151C000080B582B00B
:101DA00000AF0200FB1D1A70C0460E4B9847031E81
:101DB000FBD10D4B98470D4AFB1D1B781370C04695
:101DC000084B9847031EFBD1094B094A52688021F2
:101DD00049020A435A60074B9847C046BD4602B0C5
:101DE00080BDC046291C0000011C0000040C0040FE
:101DF000000C0040151C000080B586B000AF02004A
:101E0000FB1D1A70C0462A4B9847031EFBD1294B75
:101E10009847294AFB1D1B781370C046244B9847EE
:101E2000031EFBD1254B5B68DB04DB0EDBB2180025
:101E3000234B984703007B611F4AFB1D1B781370DF
:101E40001E4B5B68DB02DB0FDAB21323FB181A7040
:101E50001C4AFB1D1B781370C046154B9847031E88
:101E6000FBD1164B9B681B021B0C9BB2FB60164BF5
:101E700098471323FB181B78002B09D1FB68012B13
:101E800006D9124BF9687869984703007B610AE02C
:101E90001323FB181B78002B05D0FB6801337A69EC
:101EA000DA4013007B617B691800BD4606B080BD37
:101EB000291C0000011C0000040C0040000C004024
:101EC000B9180000080C0040151C00004523000054
:101ED00080B584B000AF02003960FB1D1A70FB1D95
:101EE0001B78FB603B681B781B021A00FB681343DE
:101EF000FB60FB1D1B781800044B9847044BFA68E5
:101F000092B25A80C046BD4604B080BD5D1F00003D
:101F1000000C004080B582B000AF0200FB1D1A70BB
:101F20000A4B98470A4AFB1D1B7813700949094B55
:101F30005B889BB28022D20113439BB24B80064B3D
:101F40009847C046BD4602B080BDC046011C000097
:101F5000020C0040000C0040151C000080B584B04D
:101F600000AF0200FB1D1A701C4B98471C4AFB1D5A
:101F70001B7813701B4B5B881B051B0FDBB2FB60D0
:101F8000184A538818490B405380164A154B5B88F2
:101F90009BB216490B409BB25380C046114B5B88E5
:101FA0009BB21A008023DB011340F7D10D4AFB6876
:101FB000DBB2191C0F230B40D9B25388081C0F2128
:101FC0000140080208490B40191C031C0B435380B5
:101FD000074B9847C046BD4604B080BD011C0000B9
:101FE000020C0040000C0040FFF0FFFFFFBFFFFFAE
:101FF000151C000080B584B000AF0200FB1D1A70F4
:102000000D4B98470D4AFB1D1B7813700C4B5B88DA
:102010001B051B0FDAB20F23FB181A70094B9847E8
:102020000F23FB181B781800074B98470300180074
:10203000BD4604B080BDC046011C0000020C00403B
:10204000000C0040151C0000F91D000080B584B094
:1020500000AF0200FB1D1A700F23FB18FA1D127847
:10206000D2091A700E23FB18FA1D127852091A7041
:102070000D4BBB600F23FB181B78002B0FD10F23D8
:10208000FB181B789B0010229446BC446344083B19
:102090001A680E23FB181B78DB01D31800E000231D
:1020A0001800BD4604B080BD0044004180B588B032
:1020B00000AFF860B9607A600023FB617B68DB7871
:1020C00001225340DBB2002B35D07B681B78802B7C
:1020D0000BD0FB69802252021343FB617B681B78A3
:1020E0001B061A00FB691343FB617B685B78002BBE
:1020F00003D07B685B78022B10D1FB6980229202AF
:102100001343FB617B689B78002B04D0FB69802222
:10211000D2021343FB61FB68BA685A607B685B7844
:10212000012B03D07B685B78022B07D1FB69224A25
:102130001340FB6102E0FB68BA685A60BB681B048D
:102140001B0CBB61BB681B0C7B61BA69FB69134349
:10215000A022D2051A43FB689A627A69FB6913438D
:10216000D02212061A43FB689A627B68DB78012250
:102170005340DBB2002B1AD0FA698023DB021340F4
:102180000AD07B689B78012B03D1FB68BA689A61FF
:1021900002E0FB68BA685A617B685B78012B03D068
:1021A0007B685B78022B02D1FB68BA689A60C046F4
:1021B000BD4608B080BDC046FFFFFBFF80B584B0C0
:1021C00000AF02003960FB1D1A70FB1D1B78180060
:1021D0000A4B98470300FB60FB1D1B781F2213402E
:1021E00001229A401300BB603A68B968FB68180086
:1021F000034B9847C046BD4604B080BD4D2000004B
:10220000AD20000080B500AFC046BD4680BD0000D7
:1022100080B500AF064B9847064B9847064B98474A
:10222000064B9847064B9847C046BD4680BDC04602
:10223000D11A0000C116000005220000052200008E
:102240000522000080B582B000AF2F4B7B602F4B82
:102250003B607A683B689A420CD007E03B681A1DE5
:102260003A607A68111D796012681A603A68284BE2
:102270009A42F3D3274B3B6004E03B681A1D3A6057
:1022800000221A603A68244B9A42F6D3234B7B60B3
:10229000234B7A68FF218A439A60224A90235B008D
:1022A0000221D150204AD37803218B43191C0223E9
:1022B0000B43D3701C4AD3780C218B43191C082381
:1022C0000B43D370194A937B30218B43191C202375
:1022D0000B439373154A937B0C218B43191C0823E2
:1022E0000B439373114A937B03218B43191C0223E5
:1022F0000B4393730E4A536880210B4353600D4B7D
:1023000098470D4B9847FEE7E026000000000020AC
:102310003C0400203C040020D00400200000000009
:1023200000ED00E000700041005000410048004115
:1023300000400041B1240000DD03000080B500AF83
:10234000FEE70000002243088B4274D303098B424E
:102350005FD3030A8B4244D3030B8B4228D3030C75
:102360008B420DD3FF22090212BA030C8B4202D317
:102370001212090265D0030B8B4219D300E0090A3F
:10238000C30B8B4201D3CB03C01A5241830B8B4248
:1023900001D38B03C01A5241430B8B4201D34B0331
:1023A000C01A5241030B8B4201D30B03C01A524196
:1023B000C30A8B4201D3CB02C01A5241830A8B421B
:1023C00001D38B02C01A5241430A8B4201D34B0204
:1023D000C01A5241030A8B4201D30B02C01A524168
:1023E000CDD2C3098B4201D3CB01C01A524183091C
:1023F0008B4201D38B01C01A524143098B4201D356
:102400004B01C01A524103098B4201D30B01C01A80
:102410005241C3088B4201D3CB00C01A52418308FA
:102420008B4201D38B00C01A524143088B4201D327
:102430004B00C01A5241411A00D201465241104687
:102440007047FFE701B5002000F006F802BDC04666
:102450000029F7D076E770477047C046F0B5CE4602
:10246000474615042D0C2E0080B50704140C3F0CB4
:102470009946030C7E435D43674363437F19340CE5
:10248000E4199C46A54203D980235B029846C444C4
:102490004B46514343433604360C250C2404654413
:1024A000A4195918491920000CBC90469946F0BD52
:1024B00070B50D4E0D4D0024AD1BAD1005D0A30021
:1024C000F35801349847A542F9D100F0F7F8084EC7
:1024D000084D0024AD1BAD1005D0A300F358013406
:1024E0009847A542F9D170BDC8260000C826000053
:1024F000C8260000D0260000034B10B5002B02D0E8
:10250000024800F005F810BD000000002125000081
:1025100010B5010000230022002000F01FF810BDBC
:1025200070B5094B094CE41AA41009D0084AA51843
:10253000AD00ED182B68013C9847043D002CF9D103
:1025400000F0C6F870BDC046DC260000E0260000A2
:10255000FFFFFF3F7047C0467047C046F0B54E468C
:102560004546DE465746E0B5364D83B0060028683E
:1025700098460F009146FFF7EDFF334B1C68A423EC
:102580005B00E058002852D043681F2B13DC5A1C14
:102590000192002E28D1019A02339B0042601F5005
:1025A0002868FFF7D9FF002003B03CBC904699464D
:1025B000A246AB46F0BD254B002B3DD0C8204000C5
:1025C00000E000BF002837D0A42200235200A15809
:1025D00043600160A0504032835004328350013385
:1025E00001930023002ED6D09A00924682444A4698
:1025F000882154466250C4225200914681444A4682
:102600008739994012688B460A4394464A46614688
:102610001160842241465200A150022EBBD102001B
:102620005C468D32FF3211680C431460B3E7200022
:102630004D30FF30E050A7E72868FFF78DFF0120FD
:102640004042B1E738040020B82600000000000036
:1026500000080042000C004200100042001400423A
:1026600000180042001C0042090A0B0C0D0E00006D
:10267000D61800004E1900004E190000F418000092
:10268000EE180000FA180000DC1800000019000025
:1026900034190000281A0000781A0000781A000087
:1026A000741A00001A1A00003A1A00000A1A0000F0
:1026B0004C1A00005E1A000010000020F8B5C04659
:1026C000F8BC08BC9E467047F9240000DD000000FD
:1026D000F8B5C046F8BC08BC9E467047B50000007F
:1026E000401F000008000000010000000000000082
:1026F00000000000FC02002064030020CC03002046
:1027000000000000000000000000000000000000C9
:1027100000000000000000000000000000000000B9
:1027200000000000000000000000000000000000A9
:102730000000000000000000000000000000000099
:102740000000000000000000000000000000000089
:102750000000000000000000000000000000000079
:102760000000000000000000000000000000000069
:102770000000000000000000000000000000000059
:102780000000000000000000000000000000000049
:102790000000000000000000010000000000000038
:1027A0000E33CDAB34126DE6ECDE05000B000000FD
:1027B0000000000000000000000000000000000019
:1027C0000000000000000000000000000000000009
:1027D00000000000000000000000000000000000F9
:1027E00000000000000000000000000000000000E9
:0C2B10000000000000000000AC040020E9
:00000001FF
